:020000021000EC
:10F0000062C000007DC000007BC0000079C000002D
:10F0100077C0000075C0000073C0000071C0000020
:10F020006FC000006DC0000067C5000069C000002F
:10F0300067C0000065C0000063C0000061C0000040
:10F040005FC000005DC000005BC0000059C0000050
:10F0500057C0000055C0000053C0000051C0000060
:10F060004FC000004DC000004BC0000049C0000070
:10F0700047C0000045C0000043C0000041C0000080
:10F080003FC000003DC000003BC0000039C0000090
:10F0900037C0000035C0000053FE70FE13FF70FE45
:10F0A00013FFA5FEC6FE13FFE6FEF8FE180344009C
:10F0B000650061006E002000430061006D00650086
:10F0C00072006100000011241FBECFEFD0E2DEBF4E
:10F0D000CDBF11E0A0E0B1E0E2ECFEEF01E00BBF3C
:10F0E00002C007900D92AE38B107D9F711E0AEE833
:10F0F000B1E001C01D92A03AB107E1F741D0DFC6EF
:10F100007FCF84E08093E9008091E80085FD0EC008
:10F110008091E8008B778093E8008091E80082FD81
:10F12000F3CF8EB38111F9CF80E008958091F10083
:10F13000089593E09093E9009091E80095FF03C053
:10F140008093F10008959091E8009E779093E800F5
:10F150009091E80090FDF4CF9EB39111F9CF0895FE
:10F1600080918E0190918F01019690938F018093F1
:10F170008E01892B21F488B190E4892788B90895FC
:10F180002F923F924F925F926F927F928F929F92B7
:10F19000AF92BF92CF92DF92EF92FF920F931F93A5
:10F1A000CF93DF9300D000D000D0CDB7DEB78FED86
:10F1B00084B92D9A84B7877F84BF88E10FB6F8940D
:10F1C00080936000109260000FBE1D9990C280E491
:10F1D00087B981E085BF82E085BF73D47894F4E07D
:10F1E0008F2EA3E07A2E99249394B5E06B2E13E032
:10F1F000212E312CA12CB12C809190019091910164
:10F20000892B09F062C28092E9008091E80082FFB8
:10F2100059C277DF982F853449F48DE08ADF81E089
:10F2200090E0909391018093900125C2843511F470
:10F2300068DFB1C18C3409F4AEC1803509F4ABC1CB
:10F24000843729F484E475DF80E073DF14C28136EB
:10F2500011F489E5FACF813491F453DF182F51DF8F
:10F2600090E0880F991F212F30E0322F2227330F93
:10F27000822B932BAA2797FDA095BA2FD0C1803758
:10F2800011F483E5E2CF833559F405E811E0F80184
:10F2900081918F014EDFF1E00C381F07C1F7EBC100
:10F2A000863521F481E345DF80E3CFCF833731F426
:10F2B00082E83FDF87E93DDF8EE1C7CF853601F584
:10F2C00080E090E0DC01FC01A0935B0070925700AD
:10F2D000E89507B600FCFDCFFC01A0935B006092AF
:10F2E0005700E89507B600FCFDCF9F5FAF4FBF4FBB
:10F2F000811520EF920721E0A207B10521F74BC14C
:10F300008C3651F4FEDE809599E0E1E0F0E0082EC5
:10F3100090935700E8953FC1823721F489E0E1E0FE
:10F32000F0E00FC0863419F489E0F5010AC08E348C
:10F3300019F489E0F10105C0813539F489E0E2E092
:10F34000F0E080935700849180CF823621F489E5E4
:10F35000F0DE81E078CF823419F0873609F0E2C020
:10F360009983CFDE482E512C542C4424CADE482ADF
:10F37000C8DE182F8BEB810F9981823010F08FE35C
:10F3800064CF973609F04AC081E180935700E89531
:10F390009201512C2115310509F46DC1C0909201E3
:10F3A000D0909301E0909401F0909501D701C601AF
:10F3B0001634D1F48529ABBFFC01879129833A83A8
:10F3C000B8DE29813A81552069F0F2E0CF0ED11CD8
:10F3D000E11CF11CC0929201D0929301E092940141
:10F3E000F0929501592417C0B695A79597958795E2
:10F3F00029833A834ED59DDE82E0C80ED11CE11CE4
:10F40000F11CC0929201D0929301E0929401F0928B
:10F4100095013A81298121503109BCCFC0909201D8
:10F42000D0909301E0909401F0909501163429F06A
:10F430005E824D82412C512C3DC0F601E0925B0072
:10F4400070925700E89507B600FCFDCFF1CF163457
:10F4500009F038C0552099F14091920150919301E3
:10F46000609194017091950149835A836B837C83E9
:10F4700048DE242D30E0382B49815A816B817C8114
:10F480000901FA0160935B0090925700E8951124FE
:10F490004E5F5F4F6F4F7F4F4093920150939301A8
:10F4A00060939401709395015924ED81FE81319709
:10F4B000FE83ED838D819E81892B49F626C021DE56
:10F4C000482EF2CF1EDE682F809192019091930119
:10F4D000A0919401B0919501B695A79597958795C0
:10F4E000E0D48091920190919301A0919401B09108
:10F4F00095010296A11DB11D8093920190939301F5
:10F50000A0939401B0939501D0CF163409F043C075
:10F51000F601E0925B0060925700E89507B600FCA8
:10F52000FDCF39C0833499F4C0909201D0909301FB
:10F53000E0909401F0909501E4DD90E00C01F6017B
:10F54000E0925B0090925700E895112424C0833626
:10F5500021F5C0909201D0909301E0909401F09039
:10F560009501CFDDB701A601416090E00C01FA01E1
:10F5700060935B0090925700E895112492E0C90EC9
:10F58000D11CE11CF11CC0929201D0929301E09237
:10F590009401F09295018DE058CE8D3691F48091D2
:10F5A000920190919301A0919401B0919501FC0179
:10F5B000A0935B0060925700E89507B600FCFDCF72
:10F5C000EACF823581F48091920190919301A091CC
:10F5D0009401B0919501ABBFFC0107911691812F69
:10F5E000A8DD802F32CE843419F58BDD682F809111
:10F5F000920190919301A0919401B0919501B695DB
:10F60000A795979587954DD48091920190919301FC
:10F61000A0919401B09195010296A11DB11D809316
:10F62000920190939301A0939401B0939501B3CF6D
:10F630008436F1F4C0909201D0909301E09094014F
:10F64000F0909501D701C601B695A7959795879536
:10F6500020D46FDDE2E0CE0ED11CE11CF11CC09283
:10F660009201D0929301E0929401F092950103C02F
:10F670008B3109F084CE7092E9009091E80080917E
:10F68000E8008E778093E80095FD11C08091E80036
:10F6900080FD04C08EB38111F9CF14C08091E800C1
:10F6A0008E778093E80003C08EB3882359F0809151
:10F6B000E80080FFF9CF8092E9008091E8008B7725
:10F6C0008093E800C5D34CDD97CD28E088E190E039
:10F6D0000FB6F894A895809360000FBE2093600049
:10F6E0008091E00081608093E000F894FFCF2D9836
:10F6F000E0E0F0E0099580E090E026960FB6F894FF
:10F70000DEBF0FBECDBFDF91CF911F910F91FF9054
:10F71000EF90DF90CF90BF90AF909F908F907F90B1
:10F720006F905F904F903F902F90089542E061EC72
:10F7300082E054D142E161E883E050D142E160E8E7
:10F7400084E04CC180919801982F9F77913239F5D0
:10F7500090919901903291F0913209F5813AF9F442
:10F760008091E800877F8093E80067E070E080E0A8
:10F7700091E0A1D08091E8008B770FC0813279F4BD
:10F780008091E800877F8093E80067E070E080E088
:10F7900091E0E8D08091E8008E778093E8000895AA
:10F7A000292F30E02230310539F02330310549F07E
:10F7B0002130310561F410C08EE390E025E331E0A3
:10F7C0001EC0882371F0813089F08230A1F080E082
:10F7D00090E020E030E013C082E190E023E731E0E8
:10F7E0000EC084E090E021E331E009C088E190E0C0
:10F7F0002CEA30EF04C088E290E027E031E0FA0123
:10F8000031832083089507B600FCFDCFF999FECF20
:10F8100023E0FB0180935B0020935700E89507B637
:10F8200000FCFDCF81E180935700E895089507B66D
:10F8300000FCFDCFF999FECF25E0FB0180935B0032
:10F8400020935700E89507B600FCFDCF81E1809337
:10F850005700E895089507B600FCFDCFF999FECF53
:10F8600021E00A01FB0180935B0020935700E8959B
:10F870001124089521E2FC012093570084910895FA
:10F8800029E0FC012093570084910895E1E0F0E025
:10F8900089E0809357008491089507B600FCFDCF5E
:10F8A000F999FECF809599E0E1E0F0E0082E909381
:10F8B0005700E895089520919E0130919F012617E9
:10F8C000370748F06115710539F42091E8002E776B
:10F8D0002093E80001C0B901FC0120E06115710529
:10F8E00091F18EB38823D1F18530D1F18091E80078
:10F8F00083FD32C08091E80082FF06C08091E8005D
:10F9000082FF24C080E008958091E80080FFE6CF68
:10F910008091F2009091F3006115710551F08830EB
:10F92000910538F421912093F100615071090196FD
:10F93000F3CF21E0089709F020E08091E8008E776E
:10F940008093E800CBCF2111CCCFD8CF8EB38823C2
:10F9500029F0853099F604C081E0089582E0089589
:10F9600083E008956115710529F42091E8002B7753
:10F970002093E8006115710521F12EB3222351F186
:10F98000253051F12091E80023FD20C02091E800AE
:10F9900022FFF3CFFC01CF012091F2003091F30060
:10F9A000232B19F38091F1008193CF0161507109EC
:10F9B0006115710581F7D9CF8EB3882359F0853051
:10F9C00059F08091E80080FFF7CF02C081E00895F0
:10F9D00080E0089582E0089583E008958F70809319
:10F9E000E900EBEEF0E0808181608083EDEEF0E0F5
:10F9F00010826093EC0040838091EE00881F88277E
:10FA0000881F08958091980187FD05C08091E800C6
:10FA100080FF0DC010C08091E80082FD04C08EB34D
:10FA20008111F9CF08958091E8008B7707C08EB3DC
:10FA30008111ECCF08958091E8008E778093E800E3
:10FA400008950F931F93CF93DF9349D050D0C8ED03
:10FA5000D0E088818F7788838881806888838881D7
:10FA60008F7D8883E7EDF0E080818068808319BC1A
:10FA70001EBA1092960100EE10E0F80180818B7F93
:10FA8000808388818160888342E060E080E0A6DF37
:10FA9000E1EEF0E080818E7F8083E2EEF0E0808115
:10FAA00081608083808188608083F80180818E7F7F
:10FAB0008083888180618883DF91CF911F910F912E
:10FAC0000895E8EDF0E080818F7E8083E7EDF0E03F
:10FAD00080818160808381E080939701B2CFE8EDDF
:10FAE000F0E080818C7F80831092E2000895109274
:10FAF000DA001092E10008951F920F920FB60F9254
:10FB000011240BB60F922F933F934F935F936F93F4
:10FB10007F938F939F93AF93BF93EF93FF938091C6
:10FB2000DA0080FF1BC08091D80080FF17C0809151
:10FB3000DA008E7F8093DA008091D90080FF0BC0BD
:10FB400084E189BD86E189BD09B400FEFDCF81E075
:10FB50008EBB7DD103C019BC1EBA79D18091E10062
:10FB600080FF17C08091E20080FF13C08091E20007
:10FB70008E7F8093E2008091E20080618093E200BA
:10FB80008091D80080628093D80019BC85E08EBB3C
:10FB90005ED18091E10084FF2CC08091E20084FF5F
:10FBA00028C084E189BD86E189BD09B400FEFDCF8E
:10FBB0008091D8008F7D8093D8008091E1008F7E66
:10FBC0008093E1008091E2008F7E8093E20080913B
:10FBD000E20081608093E20080919601811104C06F
:10FBE0008091E30087FF02C084E001C081E08EBB0A
:10FBF0002ED18091E10083FF21C08091E20083FF3C
:10FC00001DC08091E100877F8093E10082E08EBB80
:10FC1000109296018091E1008E7F8093E1008091A7
:10FC2000E2008E7F8093E2008091E2008061809309
:10FC3000E20042E060E080E0D1DE09D1FF91EF9187
:10FC4000BF91AF919F918F917F916F915F914F91F4
:10FC50003F912F910F900BBE0F900FBE0F901F90F2
:10FC600018951F93CF93DF9300D0CDB7DEB7E8E9A7
:10FC7000F1E08091F100819381E0E03AF807C9F763
:10FC800061DD8091E80083FFCEC020919801309122
:10FC90009901832F90E08A30910508F0C4C0FC01DF
:10FCA000E45BF740F0C0203881F0223809F0BBC097
:10FCB00080919C018F708093E9009091EB0095FBFF
:10FCC000992790F91092E90001C090E08091E80036
:10FCD000877F8093E8009093F1001092F10081C03B
:10FCE000822F8D7F09F09FC0223009F09CC0809147
:10FCF0009A01811124C020919C012F7009F493C0B6
:10FD00002093E9008091EB0080FF19C08091EB0007
:10FD1000333011F4806211C080618093EB0081E088
:10FD200090E0022E01C0880F0A94EAF78093EA005F
:10FD30001092EA008091EB0088608093EB001092B3
:10FD4000E9008091E800877F4FC021116CC01091BD
:10FD50009A011F778091E3008078812B8093E300E4
:10FD60008091E800877F8093E8004CDE8091E80076
:10FD700080FFFCCF8091E30080688093E300112333
:10FD800011F083E001C082E08EBB4DC020582230CC
:10FD900008F049C0AE014F5F5F4F60919C018091B8
:10FDA0009A0190919B01FCDC009709F43CC02091E2
:10FDB000E800277F2093E800BC0189819A817BDDE0
:10FDC0008091E8008B778093E8002DC0203859F5AA
:10FDD0008091E800877F8093E8008091960180936E
:10FDE000F1008091E8008E778093E8000BDE1BC065
:10FDF000211119C090919A019230A8F48091E800E5
:10FE0000877F8093E80090939601FCDD80919601B6
:10FE1000811104C08091E30087FF02C084E001C02B
:10FE200081E08EBB83DC8091E80083FF0AC0809173
:10FE3000E800877F8093E8008091EB0080628093E8
:10FE4000EB000F900F90DF91CF911F9108950895CF
:10FE5000CF938EB38823A9F08091E9008F709091A1
:10FE6000EC0090FF02C090E801C090E0C92FC82BC1
:10FE70001092E9008091E80083FDF3DECF70C0931B
:10FE8000E900CF910895EE0FFF1F0590F491E02D4A
:10FE90000994F999FECF92BD81BDF89A992780B552
:10FEA0000895262FF999FECF1FBA92BD81BD20BDBE
:10FEB0000FB6F894FA9AF99A0FBE01960895F8943D
:02FEC000FFCF72
:10FEC2000000000000000828034C005500460041D5
:10FED200002000430044004300200042006F006FF6
:10FEE2000074006C006F0061006400650072000025
:10FEF200000403090409023E0002010080320904E1
:10FF0200000001020201000524001001042402067F
:10FF12000524060001070582030800FF0904010009
:10FF2200020A00000007050402100005070583020B
:10FF32001000051201100102000008EB034A200024
:0EFF420001010200014C5546414344430000BA
:10FFA00032CC45CC58CC66CC6BCC70CC76CC08959A
:08FFB0000895089508950895D5
:10FFE000DFCFDFCFDFCFDFCFDFCFDFCFDFCFDFCFA1
:08FFF000DFCFDFCFDFCFDFCF51
:08FFF80000F00100B1DFFBDCA9
:040000031000F000F9
:00000001FF
